:100000000C94DA000C9402010C9402010C9402018D
:100010000C9402010C9402010C9402010C94020154
:100020000C9402010C9402010C9402010C94020144
:100030000C9402010C9402010C9402010C94020134
:100040000C94E0110C9402010C9450120C942A129E
:100050000C9402010C9402010C9402010C94020114
:100060000C9482120C94020100407A10F35A00A002
:10007000724E18090010A5D4E80000E87648170071
:1000800000E40B54020000CA9A3B000000E1F505B1
:10009000000080969800000040420F000000A086FB
:1000A00001000000102700000000E803000000002D
:1000B0006400000000000A000000000001000000D1
:1000C00000002C76D888DC674F0823DFC1DFAE59EB
:1000D000E1B1B796E5E3E453C63AE651997696E87E
:1000E000E6C28426EB898C9B62ED407C6FFCEFBC02
:1000F0009C9F40F2BAA56FA5F490055A2AF75C932D
:100100006B6CF9676DC11BFCE0E40D47FEF520E662
:10011000B500D0ED902E0300943577050080841E45
:10012000080000204E0A000000C80C333333330FA0
:10013000986E12831141EF8D2114893BE65516CF3D
:10014000FEE6DB18D1844B381BF77C1D901DA4BB49
:10015000E424203284725E228100C9F124ECA1E5FE
:100160003D27000000080002010000030407000012
:1001700000000000000000000000250028002B0007
:1001800000000000240027002A00040404040404E2
:100190000404020202020202030303030303010236
:1001A0000408102040800102040810200102040805
:1001B0001020A11311241FBECFEFD8E0DEBFCDBFAA
:1001C00026E0A0E2B2E001C01D92A836B207E1F736
:1001D00012E0A0E0B1E0E8EBF1E402C005900D927E
:1001E000A032B107D9F710E0CAEDD0E004C02197E2
:1001F000FE010E94411CC93DD107C9F70E9410149D
:100200000C94DA200C94000090E0FC01E256FE4FC2
:10021000249186579E4FFC018491882399F090E0A9
:10022000880F991FFC01E058FE4FA591B491FC0185
:10023000EA58FE4F859194918FB7F894EC91E22B98
:10024000EC938FBF089590E0FC01EE59FE4F24918E
:10025000FC01E256FE4F3491FC01E657FE4FE4915B
:10026000EE23C9F0222339F0233001F1A8F4213024
:1002700019F1223029F1F0E0EE0FFF1FEA58FE4F8E
:10028000A591B4918FB7F894EC91611126C0309587
:100290003E233C938FBF08952730A9F02830C9F042
:1002A000243049F7809180008F7D03C080918000C9
:1002B0008F7780938000DFCF84B58F7784BDDBCFCD
:1002C00084B58F7DFBCF8091B0008F778093B00095
:1002D000D2CF8091B0008F7DF9CF3E2BDACF8E3018
:1002E00008F08E508770806480937C0080917A0043
:1002F000806480937A0080917A0086FDFCCF8091A3
:1003000078009091790008953FB7F89480918B021E
:1003100090918C02A0918D02B0918E0226B5A89B7F
:1003200005C02F3F19F00196A11DB11D3FBFBA2F87
:10033000A92F982F8827BC01CD01620F711D811D47
:10034000911D42E0660F771F881F991F4A95D1F7CC
:1003500008952FB7F8946091870270918802809178
:10036000890290918A022FBF0895089508950895F3
:10037000AF92BF92CF92DF92EF92FF920F931F93B3
:10038000CF93DF936C017B018B01040F151FEB01F1
:100390005E01AE18BF08C017D10759F06991D601A8
:1003A000ED91FC910190F081E02DC6010995892B1A
:1003B00079F7C501DF91CF911F910F91FF90EF90D9
:1003C000DF90CF90BF90AF900895FC01538D448D86
:1003D000252F30E0842F90E0821B930B541710F0F0
:1003E000CF96089501970895FC01918D828D9817FD
:1003F00061F0A28DAE0FBF2FB11D5D968C91928DD5
:100400009F5F9F73928F90E008958FEF9FEF089505
:10041000FC01918D828D981731F0828DE80FF11DCE
:10042000858D90E008958FEF9FEF0895FC01918DE9
:10043000228D892F90E0805C9F4F821B91098F73E2
:100440009927089581E095E00E94160221E0892B0A
:1004500009F420E0822F089580E090E0892B29F0B4
:100460000E94220281110C9400000895FC01A48DC9
:10047000A80FB92FB11DA35ABF4F2C91848D90E0C6
:1004800001968F739927848FA689B7892C93A089A9
:10049000B1898C91837080648C93938D848D981333
:1004A00006C00288F389E02D80818F7D80830895C6
:1004B000EF92FF920F931F93CF93DF93EC0181E0B4
:1004C000888F9B8D8C8D98131AC0E889F98980815B
:1004D00085FF15C09FB7F894EE89FF896083E8898E
:1004E000F98980818370806480839FBF81E090E080
:1004F000DF91CF911F910F91FF90EF900895F62E0D
:100500000B8D10E00F5F1F4F0F731127E02E8C8DA6
:100510008E110CC00FB607FCFACFE889F9898081EB
:1005200085FFF5CFCE010E943602F1CFEB8DEC0FA7
:10053000FD2FF11DE35AFF4FF0829FB7F8940B8F08
:10054000EA89FB8980818062CFCFCF93DF93EC0172
:10055000888D8823B9F0AA89BB89E889F9898C91AB
:1005600085FD03C0808186FD0DC00FB607FCF7CF67
:100570008C9185FFF2CF808185FFEDCFCE010E9467
:100580003602E9CFDF91CF910895DC015996ED91C4
:10059000FC913097B9F083899489A589B689428501
:1005A000538564857585841B950BA60BB70B811548
:1005B00020E89207A105B10538F08FEF9FE7A0E092
:1005C000B0E0089590E080E00895DC0159968D91A7
:1005D0009C91009739F0DC01ED91FC910480F5814C
:1005E000E02D099490E080E00895CF93DF931F926F
:1005F000CDB7DEB76983DC01ED91FC910280F38118
:10060000E02D41E050E0BE016F5F7F4F09950F90F4
:10061000DF91CF9108958FB7F894809165028FBFD5
:10062000089561E0FC0184810E94230180916402AD
:1006300081111092640208958EBD00000DB407FE72
:10064000FDCF8EB508958FEF0C941C030F931F936D
:10065000CF93DF93EC010E94A9018B010E94230339
:100660008F3F69F00E94A901601B710B6C177D0719
:10067000A8F380E0DF91CF911F910F91089581E061
:10068000F9CF8CBD9DBD0895CF93DF93EC01809190
:100690006402811109C081E0809364028091E705C2
:1006A0009091E8050E94410360E08C81DF91CF9139
:1006B0000C9423018F929F92AF92BF92FF920F935F
:1006C0001F93CF93DF93EC01F62E49015A018E81DF
:1006D000882389F08F8198859C012F5F3F4F388751
:1006E0002F838230924018F40E942303F3CFCE016F
:1006F0000E9411031E82CE010E9444038CE291E00D
:100700000E9426038F2D80640E941C0308E110E0E4
:10071000D501C401002E04C0B695A795979587957D
:100720000A94D2F70E941C0308501109083F8FEF6A
:10073000180771F785E9FF2021F028E087E8F21219
:100740008FEF0E941C0310E00E9423038A8787FF1B
:1007500004C01F3F11F01F5FF7CFDF91CF911F91B2
:100760000F91FF90BF90AF909F908F900895AF92A0
:10077000BF92CF92DF92EF92FF920F931F93CF938E
:10078000DF93EC016901C801820F931F8130924011
:1007900050F58E81882379F088819981AA81BB8167
:1007A00084179507A607B70731F48F819885C81677
:1007B000D90608F042C0488359836A837B838B85BE
:1007C000833039F089E0440F551F661F771F8A95E3
:1007D000D1F79A01AB0161E1CE010E945A0388234F
:1007E00089F083E08D83CE010E94110380E0DF91C8
:1007F000CF911F910F91FF90EF90DF90CF90BF901E
:10080000AF9008950E94A9015B010E9423038A878B
:100810008F3F69F40E94A9016A197B096D3271400A
:10082000A0F38FE08D83CE010E941103DCCF8E3FB9
:1008300089F418861F8281E08E838F8198858C15BC
:100840009D0550F40E9423038F8198850196988717
:100850008F83F3CF8DE0E6CF6701E00EF11E0E949B
:100860002303F60181936F01EE15FF05C1F78F8118
:100870009885080F191F18870F838985882319F019
:1008800001151240A0F08E81882389F08F81988510
:100890009C012F5F3F4F38872F838230924018F49E
:1008A0000E942303F3CFCE010E9411031E8281E038
:1008B0009ECFCF92DF92EF92FF920F93CF93DF9371
:1008C000EC01690182E1411551056105710599F05D
:1008D0008B85833039F089E0440F551F661F771FE1
:1008E0008A95D1F79A01AB0168E1CE010E945A03C3
:1008F000882319F084E08D832DC08EEF0E941C03A5
:1009000076018EEFD81AF70181917F010E941C03B6
:10091000EC14FD04C1F78FEF0E941C038FEF0E94BF
:100920001C030E9423038A878F71853071F40111A3
:1009300016C0CE010E94110381E0DF91CF910F918B
:10094000FF90EF90DF90CF90089581E18D83CE01ED
:100950000E941103CE010E94110380E0EECF88E5D2
:1009600092E00E942603811102C085E1C4CF20E0FD
:1009700030E0A9016DE0CE010E945A03882311F0F6
:1009800084E1B9CF0E9423038111FACFD2CF0F9314
:1009900040916702509168026091690270916A0209
:1009A000411551056105710599F0082F2FEF32E0CF
:1009B0008091FF04909100050E945904882349F01A
:1009C00010926702109268021092690210926A02F5
:1009D00081E00F9108950F93CF93C82F8091660205
:1009E000811105C0C1E08C2FCF910F9108954091E6
:1009F00000015091010160910201709103010C2FDF
:100A00002FEF32E08091FF04909100050E9459047D
:100A1000811102C0C0E0E7CFCC2321F381E00E9426
:100A2000C7048823B9F310926602DDCF8F929F929C
:100A3000AF92BF92EF92FF920F931F93CF934B0110
:100A40005C01C42F8091000190910101A0910201ED
:100A5000B091030188159905AA05BB0551F181E004
:100A60000E94EB0481110BC080E0CF911F910F9188
:100A7000FF90EF90BF90AF909F908F9008958FEF71
:100A8000E82E82E0F82E00E012E030E020E0B50130
:100A9000A4018091FF04909100050E94B703882370
:100AA00019F38092000190920101A0920201B0928C
:100AB0000301409166024C2B4093660281E0D5CF42
:100AC0008F929F92AF92BF92CF92DF92EF92FF925E
:100AD000CF932EE935E0309300052093FF0488235F
:100AE00009F46DC040E060E070E0CB010E941605A3
:100AF00081110BC080E0CF91FF90EF90DF90CF90FD
:100B0000BF90AF909F908F9008958091BD048F7794
:100B100089F78091C9049091CA04A091CB04B09147
:100B2000CC0484369105A105B10520F3C090C5041D
:100B3000D090C604E090C704F090C804C114D1045A
:100B4000E104F104B9F240E0C701B6010E941605C4
:100B5000882381F280910A0390910B0381159240C2
:100B600049F6A0910F03AA2329F260910D03709119
:100B70000E036115710509F4BDCF20910C032223EA
:100B800009F4B8CFA093BC052093AE0590E080E0B7
:100B900030E0E1E0F0E0C82FAF01082E02C0440FC2
:100BA000551F0A94E2F72417350769F041E0480F12
:100BB00001968930910579F74093B7059BCFC12CF9
:100BC000D12C7601C0CF8093B705209115033091C9
:100BD000160350E040E02115310541F42091230334
:100BE0003091240340912503509126032093AF05B3
:100BF0003093B0054093B1055093B20546015701BB
:100C0000860E971EA11CB11C8092BD059092BE0558
:100C1000A092BF05B092C005E0911003F0911103BE
:100C2000F093C305E093C205B0E00E947E1BDC0197
:100C3000CB01880D991DAA1DBB1D8093C4059093FF
:100C4000C505A093C605B093C70525E0EE0FFF1FAD
:100C50002A95E1F7E150FE4FEF2FFF27E6958E0F23
:100C60009F1FA11DB11D8093B8059093B905A09356
:100C7000BA05B093BB058090120390901303B12C7A
:100C8000A12C8114910441F480901F0390902003C3
:100C9000A0902103B0902203C81AD90AEA0AFB0ADD
:100CA000C80CD91CEA1CFB1C04C0F694E794D7942A
:100CB000C794CA95D2F7C092B305D092B405E0921A
:100CC000B505F092B60585EFC8168FE0D806E104A9
:100CD000F10428F48CE08093C10581E00CCF80E121
:100CE00025EFC2162FEFD206E104F104A0F38091A4
:100CF0002B0390912C03A0912D03B0912E03809390
:100D0000C4059093C505A093C605B093C70580E2BE
:100D1000E2CF4F925F926F927F928F929F92AF92AB
:100D2000BF92CF92DF92EF92FF920F931F93CF93D8
:100D3000DF93EC01423051056105710590F480E0CC
:100D4000DF91CF911F910F91FF90EF90DF90CF90A7
:100D5000BF90AF909F908F907F906F905F904F90DB
:100D6000089589859A85AB85BC850196A11DB11D25
:100D700084179507A607B70710F3CB88DC88ED88A2
:100D8000FE888F89803109F042C0BB27A72F962F9C
:100D9000852F480159012A013B01C80ED91EEA1EC0
:100DA000FB1E8091000190910101A0910201B09180
:100DB0000301C816D906EA06FB0699F58F8980312A
:100DC000C1F5B301A201552766277727440F551FA8
:100DD00041505D4FFA01918280828091660281606C
:100DE000809366028A89823080F08D819E81AF81F6
:100DF000B8858C0D9D1DAE1DBF1D8093670290931D
:100E00006802A0936902B0936A0281E099CFDB0186
:100E1000CA01E7E0B695A79597958795EA95D1F72A
:100E2000B8CF40E0C701B6010E9416058111C6CFB8
:100E300086CFB301A2014F77552766277727440F46
:100E4000551F440F551F41505D4FFA01808291821A
:100E5000A282B382C2CF8F929F92AF92BF92CF9263
:100E6000DF92EF92FF920F931F93CF93DF93FC01DA
:100E700081859285A385B4850196A11DB11D841736
:100E80009507A607B70770F480E0DF91CF911F9117
:100E90000F91FF90EF90DF90CF90BF90AF909F9019
:100EA0008F90089583889488A588B6888789803133
:100EB00089F5BB27A72F962F852FE9016A017B01B2
:100EC0008F01BC01CD01680D791D8A1D9B1D80908D
:100ED000000190900101A0900201B09003018616DC
:100EE0009706A806B90601F5F8018789803111F542
:100EF000DD24EE24FF24F601EE0FFF1FE150FD4F2D
:100F000080819181B0E0A0E088839983AA83BB832C
:100F100081E0BBCFDB01CA01C7E0B695A7959795E5
:100F20008795CA95D1F7C9CF40E00E941605811177
:100F3000DBCFAACFE894C7F8DD24EE24FF24F60126
:100F4000EE0FFF1FEE0FFF1FE150FD4F80819181DB
:100F5000A281B381BF70D8CF2F923F924F925F9200
:100F60006F927F928F929F92AF92BF92CF92DF92B9
:100F7000EF92FF920F931F93CF93DF93EC014B01FE
:100F80008D81811115C08FEF9FEFDF91CF911F9160
:100F90000F91FF90EF90DF90CF90BF90AF909F9018
:100FA0008F907F906F905F904F903F902F9008951B
:100FB0008C8180FFE8CF4B895C896D897E898A8529
:100FC0009B85AC85BD85412C481759076A077B076F
:100FD00011F044244394512C52011E0126E0220EAC
:100FE000311CA114B10409F4B3C04A855B856C853A
:100FF0007D856A0181E0D8228B8D9C8D8A019B01C1
:10100000E9E03695279517950795EA95D1F7ED8193
:10101000E230E1F5FC01628D738D848D958D600F5A
:10102000711F821F931F612C22E0722E6C187D08A5
:10103000A614B70408F435012C8126FD04C0611400
:10104000F2E07F0671F400910001109101012091FE
:10105000020130910301061717072807390709F025
:1010600053C040E00E941605882309F48CCFC601C6
:1010700081509D4FD4019C01260D371DFC012E1778
:101080003F0709F460C041914D93F9CFFC01748092
:101090007A947022C114D10471F471100CC0452BE4
:1010A000462B472B39F58F89988DA98DBA8D8E8364
:1010B0009F83A887B987EB8DFC8D6E817F818885A2
:1010C00099856250710981099109258504C0660FCF
:1010D000771F881F991F2A95D2F7068517852089C3
:1010E0003189600F711F821F931F670D711D811D54
:1010F000911D99CF4E815F816885798591010E940C
:101100002B078111D8CF3FCF740183019601AB012A
:10111000BC018091FF04909100050E94B7038823D1
:1011200009F431CF860C971C8A859B85AC85BD85DB
:10113000860D971DA11DB11D8A879B87AC87BD8732
:10114000A618B7084ECF281B390B820E931EECCF82
:10115000C2011BCFCF93DF931F92CDB7DEB7FC0147
:10116000818D928D009769F0BE016F5F7F4F0E9465
:10117000AC07019731F4898190E00F90DF91CF9116
:1011800008958FEF9FEFF9CF8F929F92AF92BF920A
:10119000CF92DF92EF92FF920F931F93CF93DF9343
:1011A000EC018D8181110EC080E0DF91CF911F9104
:1011B0000F91FF90EF90DF90CF90BF90AF909F90F6
:1011C0008F9008950B891C892D893E890417150776
:1011D0002607370748F34A015B01823031F48A86DB
:1011E0009B86AC86BD8681E0E0CF81149104A1048A
:1011F000B10449F41E821F82188619861A861B863E
:101200001C861D86F0CF0A851B852C853D85EB8DC0
:10121000FC8D858590E00996B901A80141505109DE
:1012200061097109082E04C0769567955795479511
:101230000A94D2F775016401E1E0CE1AD108E10801
:10124000F10804C0F694E794D794C7948A95D2F72E
:10125000C416D506E606F70620F0012B022B032B59
:1012600011F58F89988DA98DBA8D8E839F83A8875C
:10127000B9878E010A5F1F4FC114D104E104F10444
:1012800009F4ADCF4E815F816885798598018B8D9A
:101290009C8D0E942B0791E0C91AD108E108F10842
:1012A0008111EACF81CFC41AD50AE60AF70AE1CF45
:1012B000EF92FF920F931F93CF93DF931F92CDB7BF
:1012C000DEB7FC01818D928D10E000E00097D1F037
:1012D0007F01BE016F5F7F4F0E94AC070FEF1FEFD2
:1012E000019781F4098110E0F701818D928DFC0155
:1012F000428553856485758541505109610971099D
:101300000E94C408C8010F90DF91CF911F910F91E7
:10131000FF90EF9008953F924F925F926F927F926D
:101320008F929F92AF92BF92CF92DF92EF92FF92F5
:101330000F931F93CF93DF93CDB7DEB72C970FB6E4
:10134000F894DEBF0FBECDBF5C01DC015B968D90D3
:101350009C905C9716964D905D906D907C9019973F
:10136000411451046104710409F468C0BFEF4B1AC1
:101370005B0A6B0A7B0A312CF40181859285A38577
:10138000B4859C01AD012F5F3F4F4F4F5F4F2987C1
:101390003A874B875C87730162011D821E821F8220
:1013A0001886F40181859285A385B4852D813E81BF
:1013B0004F815885281739074A075B0708F056C040
:1013C00089859A85AB85BC858C159D05AE05BF05C5
:1013D00050F482E0C82ED12CE12CF12C92E0492E61
:1013E000512C612C712C9E012F5F3F4FB701A6013C
:1013F000C4010E942B078823C9F189819A81AB819E
:10140000BC81892B8A2B8B2B09F1260137019FEF99
:10141000491A590A690A790A2D813E814F815885F6
:101420002F5F3F4F4F4F5F4F2D833E834F83588732
:101430003FEFC31AD30AE30AF30AB3CFF4014080A3
:101440005180628073803324339496CFC414D504C2
:10145000E604F70409F70FEF1FEF2FEF3FE0B701A6
:10146000A601C4010E948906811119C080E02C9652
:101470000FB6F894DEBF0FBECDBFDF91CF911F91A5
:101480000F91FF90EF90DF90CF90BF90AF909F9023
:101490008F907F906F905F904F903F900895D5010F
:1014A00016964D915D916D917C911997411551055D
:1014B0006105710539F097018601C4010E94890612
:1014C0008823A1F2D5011696CD92DD92ED92FC9281
:1014D0001997332051F0D701C6010196A11DB11D06
:1014E000F40180839183A283B383F5018789908D72
:1014F000A18DB28D892B8A2B8B2B39F48481C78ADD
:10150000D08EE18EF28E80688483F50184818062C2
:10151000848381E0ACCF1F93CF93DF93FC012581BF
:101520002223D1F1162FEC01848187FF2AC0668522
:1015300077858089918941E00E941605882361F1B1
:10154000EA8980E2E89FF0011124E150FD4F3097D5
:1015500019F18D81823040F48B899C89AD89BE89D7
:10156000848F958FA68FB78F8F89988D938F828F59
:101570008F89988DA98DBA8DB58BA48B8C818F772F
:101580008C83111103C08C818F7E8C83812FDF911E
:10159000CF911F910C94EB0480E0DF91CF911F91CC
:1015A0000895FC01818D928D009719F061E00C94F3
:1015B0008B0A0895FF920F931F93CF93DF93EC0153
:1015C0008D81813041F090E080E0DF91CF911F91DB
:1015D0000F91FF9008958C8181FFF5CF82FD1BC094
:1015E0000091FF0410910005C8010E9444030E946D
:1015F0002303F82EC8010E9411038FEFF812E3CFE6
:101600008C8185FF1BC060E0CE010E948B0A8C811B
:101610008F7D8C83D8CF4B895C896D897E898A8543
:101620009B85AC85BD8584179507A607B707C1F2D2
:10163000CE010E94C4088111D3CFC5CF409167026B
:10164000509168026091690270916A02452B462BA5
:10165000472B21F080E00E94C704B5CF80618C83C6
:101660002A853B85317080E092E0821B930BADCFE1
:101670002F923F924F925F926F927F928F929F92A2
:10168000AF92BF92CF92DF92EF92FF920F931F9390
:10169000CF93DF9300D000D01F92CDB7DEB77C018F
:1016A0005B01342E5D83DC0115968C91159781309A
:1016B00009F0CEC014962C9021FECAC022FCB4C002
:1016C000C32CDD8022947FE027222094B22DB170BC
:1016D0002B2ED7011A964D915D916D917C911D979E
:1016E000C114D10409F428C15B968D919C915C973B
:1016F000FC0174807A948A019B0169E036952795F4
:10170000179507956A95D1F770228A0111707110AB
:1017100020C001151105E9F416964D915D916D916A
:101720007C911997411551056105710509F099C022
:1017300057968D919D910D90BC91A02D0097A1057C
:10174000B10509F0B0C0C7010E948B09882309F4D4
:101750007FC080E092E0801B910B46018C159D05B7
:1017600008F44C01D7015B964D915C915C971696FD
:101770008D919D910D90BC91A02D0297A109B10969
:10178000FA01258504C0880F991FAA1FBB1F2A953F
:10179000D2F74685578560897189840F951FA61FEA
:1017A000B71F9C01AD01270D311D411D511D2901A0
:1017B0003A01811432E0930609F07BC08091000168
:1017C00090910101A0910201B0910301841595054A
:1017D000A605B70559F48FEF9FEFDC018093000158
:1017E00090930101A0930201B0930301022D950192
:1017F000B301A2018091FF04909100050E94590459
:10180000882331F19EEFB91AC818D908F7018285EB
:101810009385A485B585880D991DA11DB11D82876D
:101820009387A487B58755CFF70143895489658984
:10183000768982859385A485B585481759076A07F7
:101840007B0709F43DCFC7010E94C408811138CF3E
:1018500081E090E0D70113969C938E93129780E0DD
:1018600007C09E012F5F3F4F0E942B07811102C0CE
:1018700090E079C089819A81AB81BC81F701238D89
:10188000348DF901278948EF5FEF60E070E0203187
:1018900021F048EF5FEF6FEF7FE084179507A60711
:1018A000B70708F050CFF70186839783A087B187E9
:1018B00050CF0115110599F5D7011A964D915D91FB
:1018C0006D917C911D9753968D919D910D90BC913A
:1018D000A02D481759076A077B0708F181E00E948D
:1018E000EB04882309F4B4CF409200015092010127
:1018F0006092020170920301809166028160809380
:101900006602C80181509D4FD5019C01280D391DEB
:10191000FC012E173F0759F04D914193FACF41E05A
:10192000C301B2010E9416058111EBCF91CF281B94
:10193000390BA20EB31E68CFF70183899489A5895C
:10194000B68984179507A607B70738F48481438BB7
:10195000548B658B768B80688483F701848183FD4B
:101960001AC0832D9D810F900F900F900F900F90B4
:10197000DF91CF911F910F91FF90EF90DF90CF906B
:10198000BF90AF909F908F907F906F905F904F909F
:101990003F902F90089561E0C7010E948B0A882331
:1019A00009F456CFDECFCF93DF93EC01E98DFA8DAA
:1019B000309749F481E090E09B838A8390E080E057
:1019C000DF91CF91089513821282898D9A8D0E94A2
:1019D000380BE98DFA8D22813381232B59F7F0CF13
:1019E000CF93DF931F92CDB7DEB7698341E050E01C
:1019F000BE016F5F7F4F0E94380B0F90DF91CF9138
:101A000008950895E091700280916F02E81730F414
:101A1000F0E0E752FD4F808190E008958FEF9FEF57
:101A200008959091700280916F022FEF3FEF981709
:101A300048F4E92FF0E0E752FD4F208130E09F5F4E
:101A400090937002C901089580916F029091700285
:101A5000891B990B089590E080E008952091410240
:101A6000260F3327331F21323105ECF42091F90280
:101A7000FC0190E080E0243069F082E00895A091BC
:101A800041022191AC014F5D5D4FA40FB52FB11DF7
:101A90002C930196861798F380914102680F60930A
:101AA000410280E0089581E00895CF92DF92EF92A5
:101AB000FF920F931F93CF93DF937C01CB018A0199
:101AC00020918F02222389F0EB016B01C40ED51EF9
:101AD000CC15DD0569F06991D701ED91FC9101907C
:101AE000F081E02DC7010995F3CF642F0E942E0DE0
:101AF000C801DF91CF911F910F91FF90EF90DF9080
:101B0000CF900895CF93DF931F92CDB7DEB769834F
:101B100020918F022223F9F02091B202203258F056
:101B200021E030E0FC013383228390E080E00F90DD
:101B3000DF91CF91089580919002E82FF0E0EF5669
:101B4000FD4F998190838F5F809390028093B202C2
:101B500081E090E0ECCF61E0CE0101960E942E0D75
:101B6000F7CF1092F90281E08093D8021092D3024D
:101B700061E082E10E94230161E083E10E94230190
:101B8000E9EBF0E080818E7F808380818D7F808390
:101B900088E48093B80085E48093BC000895CF93D7
:101BA000DF9391E0909320028823B9F0C091B800B0
:101BB000D091BA008091BC008A7B8093BC0060E029
:101BC00082E10E94230160E083E10E9423010E94E0
:101BD000B10DD093BA00C093B800DF91CF910895B2
:101BE000CF92DF92EF92FF920F931F93CF93DF93E9
:101BF000D82FC62F613208F098C00E9484016B0173
:101C00007C018091F90281116BC081E08093F9021F
:101C10008093D8029FEF9093D7021092D6029C0F28
:101C20009093D5028093D4028091D402DD0FD82BFB
:101C3000D093D4028091D302813009F078C0109201
:101C4000D3020E9484016B017C018091D4028093B5
:101C5000BB008091FB029091FC02A091FD02B0912B
:101C6000FE02892B8A2B8B2BA1F00E94840100910C
:101C7000FB021091FC022091FD023091FE026C19D2
:101C80007D098E099F09061717072807390708F4E9
:101C900048C08091BC0083FDD8CF85EC8093BC0008
:101CA0000E9484016B017C018091F902813009F46A
:101CB00040C08091D6028C1710F4C091D602E3EB9D
:101CC000F2E0A9EDB2E080E08C1355C08C2FDF91DB
:101CD000CF911F910F91FF90EF90DF90CF900895DB
:101CE0008091FB029091FC02A091FD02B091FE0256
:101CF000892B8A2B8B2B09F484CF0E9484010091BD
:101D0000FB021091FC022091FD023091FE026C1941
:101D10007D098E099F09061717072807390708F05C
:101D200070CF8091FA020E94CF0DC0E0CFCF85EE38
:101D3000B5CF8091FB029091FC02A091FD02B09181
:101D4000FE02892B8A2B8B2B09F4AECF0E948401D3
:101D50000091FB021091FC022091FD023091FE02E5
:101D60006C197D098E099F0906171707280739077F
:101D700008F09ACFD6CF91919D938F5FA5CF8F9288
:101D80009F92AF92BF92CF92DF92EF92FF920F930A
:101D90001F93CF93DF93D091B202D13208F0D7C016
:101DA000182FC091B1020E9484016B017C018091C7
:101DB000F90281116BC082E08093F9021093D8027E
:101DC0008FEF8093D7021092D602D093D502A1E96B
:101DD000B2E0E3EBF2E080E0D81391C01092D402BD
:101DE0008091D402CC0FC82BC093D4028091D3022F
:101DF000813009F088C01092D3020E9484016B01E7
:101E00007C018091D4028093BB008091FB02909171
:101E1000FC02A091FD02B091FE02892B8A2B8B2B34
:101E2000A1F00E9484010091FB021091FC0220911C
:101E3000FD023091FE026C197D098E099F0906177B
:101E400017072807390708F442C08091BC0083FDBA
:101E5000D8CF85EC8093BC000E9484016B017C018B
:101E60008091F902823009F450C08091D7028F3FEF
:101E700009F46FC08091D702803209F46CC0809160
:101E8000D702803309F469C084E026C08091FB0248
:101E90009091FC02A091FD02B091FE02892B8A2B49
:101EA0008B2B09F484CF0E9484018090FB029090D8
:101EB000FC02A090FD02B090FE026C197D098E0913
:101EC0009F0986169706A806B90608F070CF80917C
:101ED000FA020E94CF0D85E0109290021092B20299
:101EE00010928F02DF91CF911F910F91FF90EF9091
:101EF000DF90CF90BF90AF909F908F9008959D916D
:101F000091938F5F69CF85EEA5CF8091FB02909171
:101F1000FC02A091FD02B091FE02892B8A2B8B2B33
:101F200009F49ECF0E9484010091FB021091FC02F3
:101F30002091FD023091FE026C197D098E099F09E6
:101F4000061717072807390708F08ACFC0CF81E0A6
:101F5000C3CF80E0C1CF82E0BFCF83E0BDCFFC0123
:101F600001900020E9F73197AF01481B590BBC01E4
:101F700081E095E00C94B801CF93DF930E94AF0FFE
:101F8000EC018CE491E00E94AF0F8C0F9D1FDF915C
:101F9000CF910895FC0180819181009711F00C94FC
:101FA000E31C0895CF92DF92FF920F931F93CF937C
:101FB000DF936C0181E080938F0288E68093B10209
:101FC000109290021092B20260E089EE95E00E94B9
:101FD000820D81E00E94BF0E67E088E60E94F00D4E
:101FE0001092700280936F0289EE95E00E94110DAD
:101FF0008F77282F30E094E0359527959A95E1F773
:10200000922F990F990FC22FC91BCC0FC80F89EEC1
:1020100095E00E94110D9C0144E0359527954A9565
:10202000E1F72F703327922F990F990FD22FD91BD9
:10203000DD0FD80F89EE95E00E94110D9C0154E050
:10204000359527955A95E1F72F703327922F990FE1
:10205000990F122F191B110F180F89EE95E00E948E
:10206000110D89EE95E00E94110D9C0164E03595FB
:1020700027956A95E1F72F703327922F990F990FC3
:10208000022F091B000F080F89EE95E00E94110D29
:102090009C0174E0359527957A95E1F72F703327E9
:1020A000922F990F990FF22EF91AFF0CF80E89EE64
:1020B00095E00E94110D9C01E4E035952795EA9585
:1020C000E1F72F703327922F990F990F291B220FB9
:1020D000820FF6018083F18202831383D483C58348
:1020E000C601DF91CF911F910F91FF90DF90CF90AC
:1020F00008950F931F93CF93DF93EC01888199810B
:10210000009759F02A813B812617370730F081E08C
:10211000DF91CF911F910F9108958B016F5F7F4FDA
:102120000E946C1D009759F0998388831B830A8352
:102130002C813D81232B59F7FC011082E8CF80E0F0
:10214000E7CF0F931F93CF93DF93EC010C811D8199
:102150000F5F1F4FB8010E947910882369F0288112
:1021600039818C819D816FE471E0820F931F0E9401
:10217000321E1D830C8381E0DF91CF911F910F915F
:102180000895EF92FF920F931F93CF93DF93FB017C
:10219000E080F180E114F10441F480E0DF91CF911F
:1021A0001F910F91FF90EF90089504811581011503
:1021B0001105B1F0EC018C819D81080F191FB80148
:1021C000CE010E947910882341F3288139818C81C6
:1021D0009D81B701820F931F0E94321E1D830C83C5
:1021E00081E0DCCFEF92FF920F931F93CF93DF93A9
:1021F000EC017B018A01BA010E94791028813981A2
:10220000811114C02115310519F0C9010E94E31C88
:10221000198218821D821C821B821A82CE01DF91D4
:10222000CF911F910F91FF90EF9008951D830C8324
:10223000B701C9010E94321EF1CFEF92FF920F93B6
:102240001F93CF93DF93CDB7DEB7A1970FB6F89466
:10225000DEBF0FBECDBF7C01CB01BA01F7011182F9
:10226000108213821282158214828E010F5F1F4F1B
:1022700022E044E00E94F9170097C9F0FC010190A8
:102280000020E9F73197AF01481B590BBC01C7018A
:102290000E94F210A1960FB6F894DEBF0FBECDBF1C
:1022A000DF91CF911F910F91FF90EF900895F7016B
:1022B00080819181009711F00E94E31CF701118247
:1022C00010821582148213821282E4CFEF92FF9261
:1022D0000F931F93CF93DF93CDB7DEB762970FB6FF
:1022E000F894DEBF0FBECDBF8C01CB01F801118287
:1022F000108213821282158214824AE09E012F5F9F
:102300003F4F7901B9010E941718F7010190002091
:10231000E9F73197AF014E195F09B701C8010E9473
:10232000F21062960FB6F894DEBF0FBECDBFDF91FC
:10233000CF911F910F91FF90EF900895FB010190B5
:102340000020E9F73197AF01461B570B0C94F210B0
:1023500085ED8093BC008091FB029091FC02A091DE
:10236000FD02B091FE020796A11DB11D23E0B695B6
:10237000A795979587952A95D1F72091BC0024FDC4
:1023800003C01092F90208954091FB025091FC02A3
:102390006091FD027091FE02452B462B472B69F39D
:1023A0000097A105B10541F02AE22A95F1F700C096
:1023B0000197A109B109E1CF8091FA020C94CF0DE8
:1023C0001F920F920FB60F9211242F933F938F936A
:1023D0009F93AF93BF938091870290918802A091C1
:1023E0008902B0918A023091860223E0230F2D37B3
:1023F00058F50196A11DB11D209386028093870296
:1024000090938802A0938902B0938A0280918B02F4
:1024100090918C02A0918D02B0918E020196A11D27
:10242000B11D80938B0290938C02A0938D02B09388
:102430008E02BF91AF919F918F913F912F910F90FD
:102440000FBE0F901F90189526E8230F0296A11D2E
:10245000B11DD2CF1F920F920FB60F9211242F935E
:102460003F934F935F936F937F938F939F93AF931C
:10247000BF93EF93FF9381E095E00E943602FF91B6
:10248000EF91BF91AF919F918F917F916F915F91EC
:102490004F913F912F910F900FBE0F901F90189565
:1024A0001F920F920FB60F9211242F938F939F9329
:1024B000EF93FF93E0911105F09112058081E09177
:1024C0001705F091180582FD1BC0908180911A05B7
:1024D0008F5F8F7320911B05821741F0E0911A05E1
:1024E000F0E0EF5FFA4F958F80931A05FF91EF911F
:1024F0009F918F912F910F900FBE0F901F90189565
:102500008081F4CF1F920F920FB60F9211242F9358
:102510003F934F935F936F937F938F939F93AF936B
:10252000BF93EF93FF938091B900887F803609F4C1
:102530004AC0F0F5883209F4A7C018F5803109F4D3
:102540009BC0B8F4882309F4F9C0883009F494C01A
:10255000FF91EF91BF91AF919F918F917F916F917B
:102560005F914F913F912F910F900FBE0F901F9051
:102570001895883109F488C0803251F78093D702CA
:1025800014C0803409F49DC040F48033B9F388331B
:10259000F9F68093D70285ECB0C0803509F485C088
:1025A000883509F496C0883499F60E94A811D0CFD6
:1025B000883909F48CC038F5883729F050F488360A
:1025C00011F0803729F683E08093F90210926302BC
:1025D00057C0883809F47BC0803919F0803809F079
:1025E000B7CF80916302803208F071C0E09163023E
:1025F00081E08E0F809363028091BB00F0E0ED5B81
:10260000FD4F80833DC0803B39F0E0F4803A09F40F
:1026100079C0883A09F09CCF84E08093F902109247
:10262000420210924102E0916D02F0916E02099512
:102630008091410281110FC081E08093410210928C
:10264000210209C0803C09F4A6CF883C09F4A3CF3D
:10265000883B09F07DCFE091420281E08E0F8093AC
:102660004202F0E0EF5DFD4F80818093BB009091CE
:1026700042028091410229C08091D4028093BB0024
:1026800085EC8093BC0064CF9091D6028091D502F6
:10269000981758F5E091D60281E08E0F8093D6020C
:1026A000F0E0ED54FD4F8081E9CFE091D60281E06A
:1026B0008E0F8093D6028091BB00F0E0ED54FD4F69
:1026C00080839091D6028091D5029817C8F285E850
:1026D000D8CFE091D60281E08E0F8093D602809110
:1026E000BB00F0E0ED54FD4F80838091D802811152
:1026F0005CCF81E08093D30284EA8093BC00109287
:10270000F90226CF85EC8093BC001092F9028091EB
:102710006302803230F4E0916302F0E0ED5BFD4F44
:1027200010826091630270E0E0916B02F0916C02A4
:1027300083E492E00995109263020ACF1092D702C7
:1027400034CFE1E0F5E01382128288EE93E0A0E05E
:10275000B0E084839583A683B7832EE031E0318394
:10276000208325EC30E03587248724EC30E0378760
:10277000268720EC30E0318B208B21EC30E0338B4E
:10278000228B22EC30E0358B248B26EC30E0378B2B
:10279000268B118E128E138E148EEEE9F5E01582C3
:1027A00016821186138642E050E060E070E04487B4
:1027B00055876687778713A215A614A620E231E015
:1027C00033A722A717A6E7EEF5E020E520831182C4
:1027D000E9EEF5E01382128284839583A683B783A2
:1027E0002CE231E0318320832EE0209363062FE03A
:1027F00020934E0620E12093390621E12093240600
:10280000E5EFF5E01382128284839583A683B78374
:102810008EE391E091838083128E118E1486089549
:10282000CF93DF93CDB7DEB76C970FB6F894DEBFCA
:102830000FBECDBF789484B5826084BD84B58160BD
:1028400084BD85B5826085BD85B5816085BD80917B
:102850006E00816080936E001092810080918100F3
:1028600082608093810080918100816080938100EB
:10287000809180008160809380008091B1008460AD
:102880008093B1008091B00081608093B00080910E
:102890007A00846080937A0080917A0082608093CD
:1028A0007A0080917A00816080937A0080917A002A
:1028B000806880937A001092C10061E571E08FE436
:1028C00096E00E94321E6CE571E08AE396E00E9479
:1028D000321EE0911105F091120582E08083E091B3
:1028E0000D05F0910E051082E0910F05F091100595
:1028F0008FEC808310921905E0911505F091160573
:1029000086E08083E0911305F09114058081806159
:102910008083E0911305F0911405808188608083A5
:10292000E0911305F0911405808180688083E09127
:102930001305F091140580818F7D808310927002C1
:1029400010926F02109290021092B2020E94B10D8A
:1029500085EB91E090936E0280936D0286EB91E09F
:1029600090936C0280936B0287E691E00E94BC0F0B
:1029700081E080938F0288E68093B10210929002EA
:102980001092B20260E089EE95E00E94820D81E033
:102990000E94BF0E61E088E60E94F00D1092700266
:1029A00080936F0289EE95E00E94110D87FF91C020
:1029B00088E791E00E94BC0F80EA91E00E94AF0F8F
:1029C0008091CD05882341F061E088EC95E00E947C
:1029D0008B0A81111092CD051092A9051092A705BE
:1029E0001092A4051092A3058AE08093A2050E948C
:1029F000A9018B018091A2050E94040161E08091F0
:102A0000A2050E942301FFB6F89480917102811102
:102A100024C0E4E9F1E08491E8EAF1E09491E82F40
:102A2000F0E0EE0FFF1FE058FE4FA591B491EC913E
:102A3000E92321F461E08AE00E9423018AE00E94F8
:102A400004018CB580618CBD8CB580648CBD8DE03B
:102A50000E9404018BE00E940401809171028F5F4B
:102A600080937102FFBE82E58093E7051092E8052E
:102A70008091E7059091E8050E9441036AE0F62EF7
:102A80008FEF0E941C03FA94F110FACF8EE995E0C3
:102A90000E94440320E030E0A90160E08EE995E067
:102AA0000E945A03F82E8093A80521E08217A1F016
:102AB0000E94A901601B710B613D774058F381E0D2
:102AC0008093A3058EE995E00E9411038DEC91E0BF
:102AD000C4C08CE891E06ECF2AEA31E040E050E0DB
:102AE00068E08EE995E00E945A0382FF2AC0F092C6
:102AF000A9058091A905C12CD12C7601823029F439
:102B0000C12CD12CE12C40E4F42E20E030E0A901CE
:102B100067E38EE995E00E945A03A701960169E2F6
:102B20008EE995E00E945A038093A8058823D1F08E
:102B30000E94A901601B710B613D774030F388E072
:102B4000BFCF54E0F52E0E9423038093A805FA948A
:102B5000F110F9CF8A3A11F082E0B2CF82E080938F
:102B6000A905C7CF8091A9058230D1F420E030E0DB
:102B7000A9016AE38EE995E00E945A03882311F0C7
:102B800086E09ECF0E942303807C803C19F483E082
:102B90008093A9050E9423030E9423030E9423031C
:102BA0008EE995E00E94110380E58093E70510927D
:102BB000E80581E00E946005882309F4A0C18091A6
:102BC000CD05811183CF8091C105803109F09EC16F
:102BD00082E08093CD051092DF051092E0051092FF
:102BE000E1051092E2058091C2059091C305B0E025
:102BF000A0E035E0880F991FAA1FBB1F3A95D1F7B7
:102C00008093DB059093DC05A093DD05B093DE0592
:102C10008AEA95E09093E4058093E30581E0809350
:102C2000CC051092CE051092CF051092D0051092CF
:102C3000D1051092D2051092D3051092D4051092AE
:102C4000D5051092D6051092D7051092D80510928E
:102C5000D9051092DA0588EB91E00E94BC0F92E74B
:102C6000292E92E0392E00E010E0CE0143960E941A
:102C7000D20F1E861D86188A1F861A8A198A64EE4C
:102C800071E0CE010D960E949E1118861F821A8651
:102C900019861C861B866EE471E0CE0107960E94A1
:102CA0009E11CE0101960E94D20F8E811F928F93AA
:102CB0008D811F928F938C811F928F938B811F9296
:102CC0008F938A811F928F93898190E08053984FD0
:102CD0009F938F9341EF51E05F934F933F922F92D9
:102CE0000E94391E82E792E00E94BC0F8091630629
:102CF0000E946F01BC01990F880B990B0E94851AE5
:102D000021E73DE342EA50E40E94C01A20E030ECA3
:102D10004FE754E40E94CF1B2B013C0180914E06EB
:102D20000E946F01BC01990F880B990B0E94851AB4
:102D300021E73DE342EA50E40E94C01A20E030EC73
:102D40004FE754E40E94CF1B4B015C018091390690
:102D50000E946F016C01809124060E946F017C012A
:102D60001A8219821C821B821E821D8262E772E017
:102D7000CE0101960E949E118F8198850FB6F8941E
:102D8000DEBF0FBECDBF009709F422C169817A81F1
:102D90006115710509F41AC149855A852D813E8155
:102DA0004217530708F412C10E94321E8D819E8182
:102DB0009C878B871E821D82CE0101960E94CA0FBE
:102DC000CE0107960E94A110B301A201CE01019687
:102DD0000E941D11BE016F5F7F4FCE0107960E94BA
:102DE000C110CE0101960E94CA0FCE0107960E9423
:102DF000A110B601CE0101960E946611BE016F5F5F
:102E00007F4FCE0107960E94C110CE0101960E940D
:102E1000CA0FCE0107960E94A110B501A401CE01F0
:102E200001960E941D11BE016F5F7F4FCE01079674
:102E30000E94C110CE0101960E94CA0FCE010796D2
:102E40000E94A110B701CE0101960E946611BE0139
:102E50006F5F7F4FCE0107960E94C110CE01019691
:102E60000E94CA0F8FE092E00E94AF0F4B855C85F5
:102E70006F81788581E095E00E94B8018CE491E053
:102E80000E94AF0F8AE192E00E94AF0F0E9484017E
:102E90006B017C0180EA882E8FE0982EA12CB12C4A
:102EA0000E9484016C197D098E099F09683E734058
:102EB00081059105A8F331E0831A9108A108B108B2
:102EC00048EEC40E43E0D41EE11CF11C81149104B1
:102ED000A104B10429F7CE0107960E94CA0FCE01C2
:102EE0000D960E94CA0F0115110509F4BECE0E946D
:102EF0002202882309F4B9CE0E940000B6CE80E0F9
:102F00000E946005882309F4E1CD59CE803209F092
:102F1000DDCD83E08093CD058091C4059091C505FA
:102F2000A091C605B091C7058093DF059093E00599
:102F3000A093E105B093E205898F9A8FAB8FBC8F88
:102F4000C12CD12C7601812C22E0922EA12CB12C07
:102F5000498D5A8D6B8D7C8D9E01275E3F4F8AEA8D
:102F600095E00E942B07882309F4B0CD8091B70526
:102F7000A501940104C0220F331F441F551F8A95D9
:102F8000D2F7DA01C901C80ED91EEA1EFB1E498D0F
:102F90005A8D6B8D7C8D8091C105803191F088EFC9
:102FA0009FEFAFEFBFE0481759076A077B0780F232
:102FB000C092DB05D092DC05E092DD05F092DE05E3
:102FC00027CE88EF9FEFA0E0B0E0EDCF0E94E31C9A
:102FD00089819A8198878F838B819C819A87898741
:102FE0008D819E819C878B871A8219821C821B820D
:102FF000E1CEEF920F931F93CF93DF93E80134E07C
:1030000047FD34E1042E000C550B57FF03C05195CA
:1030100041955109E32E022F242FAE010E943C1846
:10302000CE01DF91CF911F910F91EF900895BB27B3
:103030004A3031F4992322F4BDE2909581959F4F57
:103040000C942318BB27FB015527AA27880F991F2B
:10305000AA1FA41710F0A41B83955051B9F7A05DC7
:10306000AA3308F0A95DA193009779F7B111B19344
:103070001192CB010C94731AA9E0B0E0E2E4F8E1FC
:103080000C948F1B6A01F22EB02E102FFBE3AF2E93
:10309000A01608F41BE31F5F012F27E0AE014F5F6E
:1030A0005F4F0E949B19BC018981982F99709130C4
:1030B00009F43FC09BE2E1FC04C09E2D9170E0FC4E
:1030C0003AC05E2D5071E82FE87083FF46C084E05F
:1030D000911101C083E0EF2DE81B8F1508F0E0E0AF
:1030E000D6018E2F20E2552351F1992329F0D601E4
:1030F0009C93C60101966C0196012D5F3F4FE2FE45
:1031000024C08EE4D6018C9391E411969C93119780
:1031100012968C93D9018E2F90E281111BC0E20F81
:10312000F32FF11D10828EEF9FEF2996ECE00C94A7
:10313000AB1B9DE2C6CF90E2C4CF2D93815081118D
:10314000FCCFCE0ED11CE0E0D0CF8EE6D6018C9322
:1031500091E6DBCF9D938150E0CF482F447082FFF2
:103160003DC084E0911101C083E08F1510F4EF2D74
:10317000E81BD6018E2F20E2552309F1992329F06F
:10318000D6019C93C60101966C0196012D5F3F4FBD
:10319000E2FE1BC089E4D6018C938EE411968C93D9
:1031A000119786E412968C93D9018E2F90E2882392
:1031B00009F4B5CF9D938150FACF2D9381508111A1
:1031C000FCCFCE0ED11CE0E0D9CF89E6D6018C939E
:1031D0008EE611968C93119786E6E4CF9B0177FFDC
:1031E00002C030E020E0A1E0B0E0911102C0B0E008
:1031F000A0E0F9013196AE0FBF1F8B2C912CBB20A4
:1032000009F461C05401EFEFAE1ABE0AAA0DBB1D4E
:10321000FA161B0619F014F04F2D4A1B511188C0E5
:10322000E3FC59C07601A42FB0E2A1114FC0C40E37
:10323000D11C992309F45BC040E0D6011196F60138
:1032400090836D01552309F448C0012F060F9A8120
:10325000582F507184FF03C0913309F401501016A8
:103260000CF047C0093008F008E0EEE2FE2E5B01EA
:10327000A01AB10885019194819491082F3F3207DB
:1032800029F4D601FC92F60131966F01621773079B
:1032900094F1021713077CF5DB01A21BB30BAA24E0
:1032A000A394B12CAC0EBD1EAA0DBB1D11968C9122
:1032B00021503109D601119628153905F4F0F6018F
:1032C00080836D01DBCFB12CA12CA0CFF701B1938E
:1032D0007F01A150AACF9111B0CFD601942F50E316
:1032E00002C05D9391509111FCCFC40ED11C40E0FF
:1032F000ACCF01E0BACF80E3DBCF6217730731F4C4
:10330000963388F4953311F4552369F0F6018083E0
:10331000FD01842F90E2811108C0A40FB11D1C9201
:1033200090E080E002CF81E3F1CF91938150F3CF21
:10333000911183CF8ACF283008F027E03327DA01B4
:10334000990F311D87FD916000966105710539F473
:1033500032602E5F3D9330E32A95E1F708959F3F59
:1033600030F080387105610509F03C5F3C5F3D93AA
:10337000913008F08068911DDF93CF931F930F93D6
:10338000FF92EF92192F987F9695E92F9695969533
:10339000E90FFF27EE53FF4F99273327EE24FF2431
:1033A000A701E70105900894079428F4360FE71E5B
:1033B000F81E491F511D660F771F881F991F06941D
:1033C000A1F70590079428F4E70EF81E491F561F31
:1033D000C11D770F881F991F661F0694A1F70590DE
:1033E000079428F4F80E491F561FC71FD11D880FD8
:1033F000991F661F771F0694A1F70590079420F484
:10340000490F561FC71FD81F990F661F771F881FA8
:103410000694A9F784911095177041F0D695C79539
:1034200057954795F794E7941A95C1F7E8E6F0E0C9
:1034300068941590159135916591959105907FE26D
:103440007395E118F10A430B560BC90BD009C0F76D
:10345000E10CF11E431F561FC91FD01D7EF47033AF
:1034600011F48A95E6CFE894015030F0080F0AF481
:103470000027021708F4202F2395022F7A3328F013
:1034800079E37D932A95E9F710C07D932A9589F613
:10349000069497956795379517951794E118F10A53
:1034A000430B560BC90BD00998F023957E91739569
:1034B0007A3308F070E37C932013B8F77E91706143
:1034C0007D9330F0839571E37D9370E32A95E1F766
:1034D0001124EF90FF900F911F91CF91DF919927C9
:1034E00087FD90950895DC01FC01672F719177238A
:1034F000E1F7329704C07C916D9370836291AE17AF
:10350000BF07C8F30895E89409C097FB3EF490956F
:103510008095709561957F4F8F4F9F4F9923A9F0AC
:10352000F92F96E9BB279395F6958795779567953B
:10353000B795F111F8CFFAF4BB0F11F460FF1BC07F
:103540006F5F7F4F8F4F9F4F16C0882311F096E912
:1035500011C0772321F09EE8872F762F05C06623C0
:1035600071F096E8862F70E060E02AF09A95660F79
:10357000771F881FDAF7880F9695879597F9089532
:103580000E94D31A0C94441B0E94361B38F00E94F0
:103590003D1B20F0952311F00C942D1B0C94331B34
:1035A00011240C94781B0E94551B70F3959FC1F356
:1035B000950F50E0551F629FF001729FBB27F00DE1
:1035C000B11D639FAA27F00DB11DAA1F649F662736
:1035D000B00DA11D661F829F2227B00DA11D621F85
:1035E000739FB00DA11D621F839FA00D611D221F3F
:1035F000749F3327A00D611D231F849F600D211D23
:10360000822F762F6A2F11249F5750409AF0F1F0A5
:1036100088234AF0EE0FFF1FBB1F661F771F881F0E
:1036200091505040A9F79E3F510580F00C942D1BFE
:103630000C94781B5F3FE4F3983ED4F3869577951E
:103640006795B795F795E7959F5FC1F7FE2B880FB4
:10365000911D9695879597F9089597F99F6780E84A
:1036600070E060E008959FEF80EC089500240A94D4
:103670001616170618060906089500240A9412164D
:103680001306140605060895092E0394000C11F480
:10369000882352F0BB0F40F4BF2B11F460FF04C02D
:1036A0006F5F7F4F8F4F9F4F089557FD9058440F86
:1036B000551F59F05F3F71F04795880F97FB991F91
:1036C00061F09F3F79F0879508951216130614064E
:1036D000551FF2CF4695F1DF08C0161617061806DB
:1036E000991FF1CF86957105610508940895E894B6
:1036F000BB2766277727CB0197F908950E94C01B47
:10370000A59F900DB49F900DA49F800D911D112435
:1037100008952F923F924F925F926F927F928F9275
:103720009F92AF92BF92CF92DF92EF92FF920F9350
:103730001F93CF93DF93CDB7DEB7CA1BDB0B0FB65A
:10374000F894DEBF0FBECDBF09942A883988488817
:103750005F846E847D848C849B84AA84B984C884AD
:10376000DF80EE80FD800C811B81AA81B981CE0FA4
:10377000D11D0FB6F894DEBF0FBECDBFED01089589
:10378000A29FB001B39FC001A39F700D811D1124A2
:10379000911DB29F700D811D1124911D08950E94ED
:1037A000E31B0C94441B0E943D1B58F00E94361BE7
:1037B00040F029F45F3F29F00C942D1B51110C941B
:1037C000781B0C94331B0E94551B68F39923B1F3AB
:1037D000552391F3951B550BBB27AA276217730737
:1037E000840738F09F5F5F4F220F331F441FAA1FCB
:1037F000A9F335D00E2E3AF0E0E832D09150504087
:10380000E695001CCAF72BD0FE2F29D0660F771F34
:10381000881FBB1F261737074807AB07B0E809F01A
:10382000BB0B802DBF01FF2793585F4F3AF09E3F9F
:10383000510578F00C942D1B0C94781B5F3FE4F33A
:10384000983ED4F3869577956795B795F7959F5FE2
:10385000C9F7880F911D9695879597F90895E1E02E
:10386000660F771F881FBB1F621773078407BA078D
:1038700020F0621B730B840BBA0BEE1F88F7E095E8
:103880000895EE0FFF1F0590F491E02D09940F931A
:103890001F93CF93DF938230910510F482E090E084
:1038A000E0916606F091670630E020E0B0E0A0E02D
:1038B000309799F42115310509F44AC0281B390BBA
:1038C00024303105D8F58A819B816115710589F114
:1038D000FB0193838283FE0111C0408151810281EB
:1038E000138148175907E0F04817590799F41097C2
:1038F00061F012960C93129713961C933296CF0197
:10390000DF91CF911F910F91089500936606109358
:103910006706F4CF2115310551F04217530738F0EF
:10392000A901DB019A01BD01DF01F801C1CFEF015F
:10393000F9CF9093670680936606CDCFFE01E20F24
:10394000F31F819391932250310939832883D7CF74
:103950002091640630916506232B41F420910601E5
:10396000309107013093650620936406209104018D
:10397000309105012115310541F42DB73EB7409135
:10398000080150910901241B350BE0916406F09168
:103990006506E217F307A0F42E1B3F0B2817390723
:1039A00078F0AC014E5F5F4F2417350748F04E0F9B
:1039B0005F1F5093650640936406819391939FCF58
:1039C000F0E0E0E09CCFCF93DF930097E9F0FC01BB
:1039D000329713821282A0916606B0916706ED01BC
:1039E00030E020E01097A1F420813181820F931FF5
:1039F00020916406309165062817390709F061C0E7
:103A0000F0936506E0936406DF91CF910895EA0193
:103A1000CE17DF07E8F54A815B819E01411551050C
:103A2000B1F7E901FB83EA8349915991C40FD51F8E
:103A3000EC17FD0761F4808191810296840F951F38
:103A4000E90199838883828193819B838A83F0E053
:103A5000E0E012968D919C9113970097B9F52D9106
:103A60003C911197CD010296820F931F209164061D
:103A7000309165062817390739F6309751F51092BD
:103A8000670610926606B0936506A0936406BCCFE5
:103A9000D383C28340815181840F951FC817D907F2
:103AA00061F44E5F5F4F88819981480F591F5183A0
:103AB00040838A819B81938382832115310509F09C
:103AC000B0CFF0936706E09366069ECFFD01DC0160
:103AD000C0CF13821282D7CFB0E0A0E0E2E7FDE1D1
:103AE0000C948B1B8C01009751F4CB010E94471C56
:103AF0008C01C801CDB7DEB7E0E10C94A71BFC0137
:103B0000E60FF71F9C0122503109E217F30708F472
:103B10009DC0D901CD91DC911197C617D70798F0B8
:103B2000C530D10530F3CE0104978617970708F307
:103B3000C61BD70B2297C193D1936D937C93CF0172
:103B40000E94E31CD6CF5B01AC1ABD0A4C018C0E5F
:103B50009D1EA0916606B0916706512C412CF12C58
:103B6000E12C109731F580916406909165068815D7
:103B7000990509F05CC04616570608F058C08091B8
:103B8000040190910501009741F48DB79EB74091D3
:103B9000080150910901841B950BE817F90708F0FB
:103BA00055C0F0936506E0936406F9017183608364
:103BB000A0CF8D919C91119712966C9012971396AD
:103BC0007C901397A815B90559F56C0142E0C40E15
:103BD000D11CCA14DB0420F1AC014A195B09DA01DB
:103BE0001296159780F06282738251834083D901C7
:103BF0006D937C93E114F10471F0D7011396FC935B
:103C0000EE93129776CF22968C0F9D1FF901918328
:103C10008083F301EFCFF0936706E093660669CFE8
:103C20004816590608F42C017D01D3019ACFCB0127
:103C30000E94471C7C01009749F0AE01B8010E9428
:103C4000291EC8010E94E31C870153CF10E000E049
:103C500050CFFB01DC0102C001900D924150504059
:103C6000D8F70895FB01DC0101900D920020E1F7E7
:103C70000895AEE0B0E0EFE3FEE10C94971B0D89F0
:103C80001E8986E08C831A8309838FEF9FE79E83CA
:103C90008D83AE01475E5F4F6F89788DCE010196AF
:103CA0000E945C1E2F813885020F131FF8011082BD
:103CB0002E96E4E00C94B31BABE0B0E0E2E6FEE14C
:103CC0000C94891B7C013B018A01FC01178216823E
:103CD000838181FFC8C1CE0101965C01F701938108
:103CE000F30193FD859193FF81913F01882309F4AE
:103CF00053C1853239F493FD859193FF81913F0142
:103D0000853229F4B70190E00E944C20E7CF912C36
:103D1000212C312CFFE1F31538F08B3211F190F4A6
:103D2000803209F1833229F137FC3CC020ED280FA5
:103D30002A3050F536FE20C08AE0989E200D1124CE
:103D4000922E06C08D3291F0803371F7689430F86E
:103D5000F30193FD859193FF81913F018111DACFAA
:103D600021C0689431F8689432F8F2CF689433F83F
:103D7000EFCF689434F8ECCFEAE02E9E200D1124AA
:103D8000222E689435F8E4CF8E3229F436FC04C133
:103D9000689436F8DDCF8C3619F4689437F8D8CFAC
:103DA0008836B1F2982F9F7D95549330E0F083369A
:103DB000A1F18337C1F1833509F063C02801F2E036
:103DC0004F0E511CF801C080D180692D70E036FC87
:103DD00002C06FEF7FEFC6010E9436204C0168944D
:103DE00037F882010AC00C5F1F4FFFE3F983882474
:103DF0008394912C6501E89437F833FE2DC0522C42
:103E00008114910471F5552009F468CFB70180E25F
:103E100090E00E944C205A94F6CFF801808189836B
:103E20000E5F1F4FE4CF2801F2E04F0E511CF80146
:103E3000C080D180692D70E036FC02C06FEF7FEF4B
:103E4000C6010E9441204C018201D5CFB70180E21A
:103E500090E00E944C202A942814190409F0B0F72D
:103E6000CECFF60137FC859137FE81916F01B70106
:103E700090E00E944C2051105A94F1E08F1A910862
:103E8000BFCF843619F0893609F077C0F80137FEC4
:103E90006BC060817181828193810C5F1F4FF32D14
:103EA000FF763F2E97FF09C090958095709561959C
:103EB0007F4F8F4F9F4F689437F82AE030E0A5017D
:103EC0000E947C20C82ECA188C2C432C36FE0CC0B5
:103ED000E89440F8C91440F434FE05C032FC03C035
:103EE000F32DFE7E4F2E892C44FE95C0FE01EC0D75
:103EF000F11D8081803309F087C0242D297E422E58
:103F0000842D8870582E43FC95C040FE8FC09C2C99
:103F1000821418F42C0C922C981844FE91C0B7010E
:103F200080E390E00E944C2042FE09C088E790E0C8
:103F300041FE02C088E590E0B7010E944C20C91400
:103F400008F48AC0CA94D12C9FEFC91AD90ACA0CA6
:103F5000DB1CF60182916F01B70190E00E944C20BA
:103F6000AC14BD04B1F74FCF60817181072E000CF6
:103F7000880B990B0E5F1F4F92CFD32CE894D4F887
:103F80002AE030E0853739F1232D297FD22E8F3674
:103F900001F148F48835A9F0F701868197812B96C5
:103FA000E2E10C94A51B803749F08837A9F7D4FECD
:103FB00002C06894D2F820E130E00DC06894D4F8D3
:103FC000F6CF34FE03C0822F8660D82E20E132E087
:103FD00002C028E030E0F801D7FE0FC06081718197
:103FE000828193810C5F1F4FA5010E947C20C82E07
:103FF000CA183D2CE89437F867CF6081718190E052
:1040000080E00E5F1F4FF0CF42FC02C0839478CF58
:104010008394839475CF842D867809F471CFF6CF7D
:10402000B70180E290E00E944C2083948214C0F398
:10403000512C73CF522C5818821408F46ECFF8CF3D
:10404000842D867809F47BCF8BE241FE80E247FC29
:104050008DE2B70190E071CFB70180E390E00E945C
:104060004C209A946CCF8FEF9FEF99CFFC01059075
:10407000615070400110D8F7809590958E0F9F1F6A
:104080000895FC016150704001900110D8F78095AF
:1040900090958E0F9F1F08950F931F93CF93DF93DB
:1040A000182F092FEB018B8181FD09C01FEF0FEF46
:1040B000812F902FDF91CF911F910F91089582FF53
:1040C00014C02E813F818C819D81281739073CF4D3
:1040D000E881F981CF0101969983888310838E81CD
:1040E0009F8101969F838E83E3CFE885F985812F99
:1040F0000995892BA1F3DACFFA01AA27283051F1CB
:10410000203181F1E8946F936E7F6E5F7F4F8F4F08
:104110009F4FAF4FB1E03ED0B4E03CD0670F781F67
:10412000891F9A1FA11D680F791F8A1F911DA11D4C
:104130006A0F711D811D911DA11D20D009F4689485
:104140003F912AE0269F11243019305D3193DEF62D
:10415000CF010895462F4770405D4193B3E00FD0E3
:10416000C9F7F6CF462F4F70405D4A3318F0495DCE
:1041700031FD4052419302D0A9F7EACFB4E0A695B1
:104180009795879577956795BA95C9F700976105D3
:10419000710508959B01AC010A2E06945795479529
:1041A00037952795BA95C9F7620F731F841F951F1E
:0841B000A01D0895F894FFCF53
:1041B800FFFFFFFF000068068000000000005802B3
:1041C800B801E501A5021602F4010802000000008A
:1041D800F00CB801DA0AB70100000000820D550D95
:1041E8002B0D010D240D110D020D00000000F5022C
:1041F800D30CE502D10AC502AA0858090D0A003BEA
:104208000050616E6E656C6C6F20310050616E6E8F
:10421800656C6C6F20320052544320626567696E8A
:10422800206973204F4B2100525443206973204E5C
:104238004F542072756E6E696E6721005254432088
:104248006973206E6F742072756E6E696E672100D7
:10425800496E697469616C697A696E672053442094
:10426800636172642E2E2E00696E697469616C69CF
:104278007A6174696F6E20646F6E652E00696E696D
:104288007469616C697A6174696F6E206661696CC2
:1042980065642100536F6C61724C6F672E6373768F
:1042A80000253034642D253032642D2530326420C9
:1042B800253032643A253032643A2530326400764B
:1042C800616C6F72692E2E2E200066696E652E0055
:00000001FF
